:02000000F92CD9
:0A000600BF01C0014008803AC100AC
:100010003E08803A4102031D0F283D083F020318A5
:100020000800BF0A0319C00A05283908BB00BC0133
:10003000BB0E0F30BB05BA08031D3B163B088312ED
:1000400086008316BB163B08831286008316BB12FC
:10005000BC013B08831286000F3083163905BB00B4
:100060000030BC00BA08031D3B163B088312860013
:100070008316BB163B08831286008316BB12BC0195
:100080003B088312860002308316BD00BE010320A8
:100090000800DC01DD01DA01DB0183135718831747
:1000A00056085A078400800803195A28DA0A0319E7
:1000B000DB0A4D28DA080319DB03DA035B08803A10
:1000C000DE0080305E02031D672800305A02031CE8
:1000D0008728831357188317560884005A08DF00AF
:1000E000DA080319DB03DA035F0884070008E0007D
:1000F000831359188317580884005C08DE00DC0A53
:100100000319DD0A5E088407600880005E288313F7
:100110005918831758085C078400003080000800D5
:10012000013083160313B900BA0115200230B9005B
:10013000BA0115200800E001E101DD01DE01DF0167
:100140005F1A08000310DD0DDE0DD70DD80DE00D90
:10015000E10D5A086102031DAF2859086002031C13
:10016000B8285908E0025A08031CE103E1025D14B3
:10017000DF0AA028D701D801DA01DB01D901591A19
:1001800008000310DA0DDB0DD00DD10DD70DD80D01
:1001900053085802031DCE2852085702031CD728C3
:1001A0005208D7025308031CD803D8025A14D90A9C
:1001B000BF2883160313AA01A5012508043C031CCC
:1001C00022292508A9002508043A031DEC288312DA
:1001D0000610FF308500FE288312061401308316B6
:1001E000AB00AC012508FF390319FB280310AB0D48
:1001F000AC0DFF3EF3282B098312850005088316FA
:10020000A400240E0F39A400A6012608033C031CF9
:1002100020290130A7002608FF39031913290310EC
:10022000A70DFF3E0C2927082405031D1E290130B8
:10023000AA002608A800AA08031D2229A60A052943
:10024000A50ADD28AA08031944292908043A031D30
:100250002C2902302802A8002908AB00AC01AB0D04
:10026000AC0DAB0DAC0DFC30AB0528082B07A50081
:100270008312831320308400831625088407000826
:10028000A4002408AB000800AB010800BA01BB01C0
:100290003608BC00CE003708BD00CF00CF1F55295F
:1002A000B609B709B60A0319B70A831283133230A5
:1002B000840083163608D7003708D800B71F652991
:1002C000D709D809D70A0319D80A0A30D900DA01A0
:1002D0009B206008DB00B71F6F29DB09DB0A5B0886
:1002E00084070008DC008313BE3084003A08D6007F
:1002F000BA0A0319BB0A560884075C088000D601B5
:100300003608D0003708D100B71F8C29D009D10991
:10031000D00A0319D10AD60A0A30D200D301BA2072
:100320005A08B6005B08B700561C9B29B609B709E6
:10033000B60A0319B70A3608D4003708D50054089E
:10034000003C55080318031DD51BA7295529BD1FBF
:10035000B5298313BE3084003A08D600BA0A0319BF
:10036000BB0A560884072D3080008313BE308400FA
:100370003A088407003080000030D700BE30D60035
:100380003808D8003908D900492008009020B80161
:100390008313371883173608380784008008031939
:1003A00008008313371883173608380784000008BD
:1003B000B9000130BA001520B80AC8295E08E0006B
:1003C000E101E00E0F30E005DF08031D6016600854
:1003D0008600E01660088600E012E10160088600F1
:1003E0000800D9202B08A300A3080319FB29D92052
:1003F000AB08031DF7292308A40008002408B60051
:100400002508B7000030B900A630B80046210030FA
:10041000B700A630B600C6210800AF01B201B30193
:100420002908B0002A08B100AC1F1C2AAF17AB097D
:10043000AC09AB0A0319AC0A2F1A2E2A2B1C262A48
:100440003008B20731080318310FB3070310AC0CA2
:10045000AB0C0310B00DB10DAF0A1C2AAF1F080082
:10046000B209B309B20A0319B30A0800A401A5012D
:10047000A601A701831323188317220884000030E4
:10048000840700082D3A031D4A2A0130A800A6005F
:10049000A7014B2AA80183132318831722082607D4
:1004A000840080080319762A0A30A900AA012408CA
:1004B000AB002508AC000D223208AD003308AE00B9
:1004C0008313231883172208260784000008AD072A
:1004D0000318AE0A3030AD02031CAE032D08A40091
:1004E0002E08A500A60A0319A70A4B2AA808031973
:1004F000812A2409A9002509AA00A90A0319AA0A20
:1005000008002408A9002508AA000800303083123A
:100510000313DE00DF01DE210A308316BD00BE01B9
:10052000032030308312DE00DF01DE213030DE00B8
:10053000DF01DE212030DE00DF01DE212030DE00A1
:10054000DF01DE218030DE00DF01DE21DE01DF01A0
:10055000DE218030DE00DF01DE21DE01DF01DE2171
:100560001030DE00DF01DE21DE01DF01DE21603040
:10057000DE00DF01DE21DE01DF01DE21E030DE0012
:10058000DF01DE218030DE00DF01DE21DE01DF0160
:10059000DE2148308316B9000130BA00152008006A
:1005A00022082B3A0319E02A22082D3A0319E02ADF
:1005B00022082A3A0319E02A22082F3A031DE32AC7
:1005C0000130A3000800A301080030302202031C00
:1005D000F02A2208393C031CF02A0130A30008004D
:1005E000A3010800A30122082D3A0319012B063AA2
:1005F0000319092B013A0319112B053A03192A2B68
:100600006D2B83124E08CC024F08031CCD03CD0284
:100610006D2B83124E08CC074F080318CD0ACD0767
:100620006D2B83124C088316A90083124D08831684
:10063000AA0083124E088316AB0083124F0883165C
:10064000AC000D2232088312CC00831633088312CB
:10065000CD006D2B8312CE08031D312BCF0803195B
:100660006A2B8316A40183124C088316D0008312D0
:100670004D088316D1008312CD1F452B8316D00958
:10068000D109D00A0319D10AA40A83124E0883168D
:10069000D20083124F088316D3008312CF1F572B2B
:1006A0008316D209D309D20A0319D30AA40A8316DE
:1006B000BA205A088312CC0083165B088312CD003F
:1006C0008316241C6D2B8312CC09CD09CC0A031987
:1006D000CD0A6D2B02308316A3008316A308031DD9
:1006E0007B2B83124C088316A40083124D088316BB
:1006F000A500FE2108002308023A031D08002A3045
:10070000A400AA004530A5004F30A8005230A60032
:10071000A700A900AB010030B700A430B600C62185
:10072000080083160313A201A208031D9B2BF121CD
:100730002408A200942B2208A300080083160313A8
:100740009B0107309C0070308F04F03085008601DB
:10075000FF30831285008601D401862208008312AF
:100760000313CC01CD01CE01CF01D2018316A40128
:10077000A501FE218312D301912323088312EE00E9
:100780006E08433A031DD12BCC01CD01CE01CF0120
:10079000D201D301D40100308316A400A500FE21AC
:1007A000BC2B6E08503A031D8C2C53080D3A0319CC
:1007B000BC2B5308003C0318BC2BD4080319E22BB4
:1007C000D401E42B0130D400D4080319352C2D308A
:1007D000EF00FF01831283135E3084007F088407DB
:1007E00080080319082C83135E3084007F08831669
:1007F000A200220884070008A300831283136F302D
:1008000084007F0A8407831623088000FF0AEA2BEE
:1008100083136F3084007F0A840700308000FF015B
:10082000831283136F3084007F08840780080319C4
:100830002E2C83136F3084007F088316A2002208B9
:1008400084070008A300831283135E3084007F08AE
:100850008407831623088000FF0A102C83135E3060
:1008600084007F08840700308000D408031D852C95
:100870000130FF00831283135E3084007F088407F9
:1008800080080319582C83135E3084007F08831678
:10089000A200220884070008A300831283136F308C
:1008A00084007F038407831623088000FF0A3A2C04
:1008B00083136F3084007F03840700308000FF01C2
:1008C000831283136F3084007F0884078008031924
:1008D0007E2C83136F3084007F088316A2002208C9
:1008E00084070008A300831283135E3084007F080E
:1008F0008407831623088000FF0A602C83135E3070
:1009000084007F0884070030800000308316B70021
:100910005E30B600C621BC2B6E088316A200E5220D
:10092000A3080319AD2C831253080D3A0319BC2BED
:1009300083135E3084005308D30A84076E08800056
:100940005E30840053088407003080000030831636
:10095000B7005E30B600C621BC2B83126E0883162A
:10096000A200D022A3080319C02C831253080D3A09
:100970000319C02C6E088316B9000130BA00152087
:100980008312D3080319E32C00308316A3005E30D2
:10099000A20036222908A0002A08A1008312D2084A
:1009A000031DDB2C831620088312CC00831621083C
:1009B0008312CD00E32C831620088312CE00831609
:1009C00021088312CF00D301D401D2080319EC2CE3
:1009D00052088316A200F22283126E083D3A0319D0
:1009E000F42C6E08D200BC2BD201BC2B9E23AF236B
:1009F000080083120313CC01CD01CE01CF01D20137
:100A0000D301D4013730A0003830A1003930A20022
:100A10002F30A3003430A4003530A5003630A600B6
:100A20002A30A7003130A8003230A9003330AA00A4
:100A30002D30AB003030AC002E30AD003D30AE007C
:100A40002B30AF005030B0004330B1003030B20036
:100A50003130B3003230B4003330B5003430B6003A
:100A60003530B7003630B8003730B9003830BA000A
:100A70003930BB00BC01BD01BE01BF01C001C101D5
:100A8000C201C301C401C501C601C701D801D90112
:100A9000D001D101DA01DB01DC01DD01C801C901AE
:100AA000CA01CB01D601D701D5018A110A12F62C51
:02400E00DB3F96
:00000001FF
