:10000000D43084000730F000E430F100112080008B
:10001000840A0408F03A03191528F10A0319F00AB2
:10002000062870088A0071088200F701F801F901BA
:0C003000FA01FB01FC01FD018A119C2F6C
:10088200BB0030303B02031C00343A303B02031CF5
:1008920001340034BE01C3014308BF004308043AD7
:1008A200031D562C0610FF30622C06140130C400C2
:1008B200430A5D2C0310C40DFF3E031D5B2C44084C
:1008C200FF3A85000508C200C20E0F30C205C10101
:1008D2000130C400410A6F2C0310C40DFF3E031DFA
:1008E2006D2C4408BD004205031D7C2CBE01BE0ACE
:1008F2004108C000862CC10A04304102031C692C45
:10090200C30A05304302031C4D2CBE0803190034F0
:100912003F08043A031D8F2CFE30C0073F08C40075
:100922000310C40D0310C40D40084407C300D43E95
:1009320084000008C20008004B24BC00BC08031954
:10094200A62C4B240038031DA22C3C080800BB0136
:10095200AC2C9D24BB00BB080319AA2C3B08080041
:10096200DE00DF01E001E101E201BA2CE10A031934
:10097200E20A61085E0784008008031DB72CFF307D
:10098200E107031CE203E21BD82C61085E07840026
:100992000008E4005F085D07840064088000FF30FF
:1009A200E107031CE203DF0A0319E00AC42C5F0813
:1009B2005D07840080010800E101E01FE72CDF09E8
:1009C200E009DF0A0319E00AE101E10ADE1FF02C67
:1009D200DD09DE09DD0A0319DE0A0130E106E30161
:1009E200E40160085F040319152DE201E20A031015
:1009F200E01BFF2CDF0DE00DF72C0310E30DE40DDF
:100A020060085E02031D072D5F085D02031C112DA5
:100A12005F08DD026008031CDE03DE0263140310BC
:100A2200E00CDF0CE20BFE2CE10803191D2DE3099B
:100A3200E409E30A0319E40A6408DE006308DD003E
:100A42000800CA01CB01461C2C2D4808CA0703180E
:100A5200CB0A4908CB070310C80DC90D0310C70CF8
:100A6200C60C47084604031D242D4B08C7004A083C
:100A7200C6000800BD00BF01C001C101C20184005F
:100A820000082D3A031D4B2DBE01BE0AC101C10A49
:100A9200C2014C2DBE0141083D07840080080319A4
:100AA200712D41083D0784000A30C800C901400881
:100AB200C7003F08C600222500084607C4000030D0
:100AC200031801304707C5004408D03EBF0045085F
:100AD2000318013EFF3EC000C10A0319C20A4C2D91
:100AE200BE080319822D4008C4003F08C300C30991
:100AF200C409C30A0319C40A4308BB004408BC0062
:100B020008004008BC003F08BB000800BB00BC0155
:100B1200BA2D7708F9027808031CFA03FA02C72DE6
:100B22007708F9070318FA0A7808FA07C72D780830
:100B3200C9007708C8007A08C7007908C6002225CC
:100B42004708FA004608B52D780877040319B72D2F
:100B52007808E0007708DF007A08DE007908DD0017
:100B6200DD245E08FA005D08F900C72D0230BC00E2
:100B7200C72D3B082A3A0319982D013A0319912DE2
:100B8200063A03198A2D023A0319A52DBC08031D42
:100B920008007A08BE007908BD00532EE101DE1F6D
:100BA200D92DDD09DE09DD0A0319DE0AE101E10AB8
:100BB200E01FE02DDF09E009DF0A0319E00A6008FF
:100BC2005F040319FF2DE201E20AE01BEC2D031082
:100BD200DF0DE00DE52D60085E02031DF22D5F08BA
:100BE2005D02031CFB2D5F08DD026008031CDE03AF
:100BF200DE020310E00CDF0CE20BEC2DE10803191E
:100C02000800DD09DE09DD0A0319DE0A0800CF014A
:100C1200D0014B08CE004A08CD00CE1F152ECA09BE
:100C2200CB09CA0A0319CB0A0A30DF00E0014B08DC
:100C3200DE004A08DD00CF255D08E63E840000089C
:100C4200DC004F08513E84005C088000CF0A031983
:100C5200D00A0A30DF00E0014B08DE004A08DD005E
:100C6200DD245E08CB005D08CA004B08803ADC0038
:100C720080305C02031D3F2E01304A020318152EFC
:100C8200CE1F4B2E4F08513E84002D308000CF0ADC
:100C92000319D00A4F08513E840080014C08DD0040
:100CA2005130B12C3F30CC003E08CB003D08CA0089
:100CB20008268A113F30CF2FF901FA01F701F80116
:100CC200FB01BD01BE0153268A11FD01A824A0002B
:100CD200433A031D7A2EF901FA01F701F801FB01EB
:100CE200FD01FC017A08BE007908BD0053268A1175
:100CF200672E2008503A031DF32E7D08083A031987
:100D0200672EFD080319672EFC0803198A2EFC01C1
:100D12008C2EFC01FC0AFC080319BF2E2D30A40006
:100D2200A10121082F3E840080080319A42E210866
:100D32002F3E84000008BA00210A243E84003A08AB
:100D42008000A10A922E210A243E84008001A10182
:100D52002108243E840080080319BB2E2108243E6A
:100D620084000008BA0021082F3E84003A0880005F
:100D7200A10AA92E21082F3E84008001FC08031D30
:100D8200F02EA101A10A21082F3E84008008031938
:100D9200D52E21082F3E84000008BA002103243EEC
:100DA20084003A088000C32E2103243E840080017F
:100DB200A1012108243E840080080319EC2E210899
:100DC200243E84000008BA0021082F3E84003A081D
:100DD2008000A10ADA2E21082F3E840080012F30E4
:100DE200CF27672E20084124003A0319092F7D08D6
:100DF200083A0319672E7D082F3E840020088000E0
:100E0200FD0A7D082F3E840080012F30CF27672EF8
:100E1200FD0803191E2F2F303B253C08A3003B0879
:100E2200A200FB08031D1A2F2308FA002208F9006A
:100E32001E2F2308F8002208F700FD01FC01FB0821
:100E42000319262F7B0887258A1120083D3A0319AA
:100E52002D2F2008FB00672EFB01672ED301D40142
:100E6200352FD30A0319D40A5408803AD500520800
:100E7200803A5502031D3F2F510853020318080000
:100E8200322FA100210E0F39A200A301A008031DD9
:100E9200221622088600A21622088600DF30A2054A
:100EA200A301220886000800A001303042270A3040
:100EB200D100D2012F27A00130304227A0013030CB
:100EC2004227A00120304227A00120304227A00162
:100ED20080304227A00100304227A0018030422703
:100EE200A00100304227A00110304227A0010030AB
:100EF2004227A00160304227A00100304227A00112
:100F0200E0304227A00180304227A0010030422772
:100F1200CD01CD0A4830A12F83169B0107309C00DA
:100F220070308F04F030850086018312FF30850017
:100F32008601FC01552F8D278A115D268A11002812
:100F4200CE004E0E0F39CF00D001CD08031D4F1633
:100F52004F088600CF164F088600DF30CF05D0013C
:100F62004F0886004E080F39CF00D001CD08031D6F
:100F72004F164F088600CF164F088600DF30CF0588
:100F8200D0014F0886000230D100D2012F2FCD01AF
:100F92000130A1278A11CD010230A12FCA00C82732
:100FA2008A11CB01DD2FCD01CD0A4B084A078400FF
:100FB2000008A1278A11CB0A4B084A07840080083F
:100FC20003190800D42F3734383439342F343434E9
:100FD200353436342A343134323433342D343034E7
:100FE2002E343D342B3450344334303431343234A3
:0E0FF20033343434353436343734383439340B
:02400E00DF3F92
:00000001FF
